{
  "_format": "hh-sol-artifact-1",
  "contractName": "Cryp1N",
  "sourceName": "contracts/Cryp1N.sol",
  "abi": [
    {
      "anonymous": false,
      "inputs": [
        {
          "indexed": true,
          "internalType": "uint256",
          "name": "campaignId",
          "type": "uint256"
        },
        {
          "indexed": false,
          "internalType": "bool",
          "name": "goalReached",
          "type": "bool"
        }
      ],
      "name": "CampaignClosed",
      "type": "event"
    },
    {
      "anonymous": false,
      "inputs": [
        {
          "indexed": true,
          "internalType": "uint256",
          "name": "campaignId",
          "type": "uint256"
        },
        {
          "indexed": true,
          "internalType": "address",
          "name": "creator",
          "type": "address"
        }
      ],
      "name": "CampaignCreated",
      "type": "event"
    },
    {
      "anonymous": false,
      "inputs": [
        {
          "indexed": true,
          "internalType": "uint256",
          "name": "campaignId",
          "type": "uint256"
        },
        {
          "indexed": false,
          "internalType": "uint256",
          "name": "newDeadline",
          "type": "uint256"
        }
      ],
      "name": "DeadlineExtended",
      "type": "event"
    },
    {
      "anonymous": false,
      "inputs": [
        {
          "indexed": true,
          "internalType": "uint256",
          "name": "campaignId",
          "type": "uint256"
        },
        {
          "indexed": true,
          "internalType": "address",
          "name": "donor",
          "type": "address"
        },
        {
          "indexed": false,
          "internalType": "uint256",
          "name": "amount",
          "type": "uint256"
        }
      ],
      "name": "Donated",
      "type": "event"
    },
    {
      "anonymous": false,
      "inputs": [
        {
          "indexed": true,
          "internalType": "uint256",
          "name": "campaignId",
          "type": "uint256"
        },
        {
          "indexed": false,
          "internalType": "uint256",
          "name": "amount",
          "type": "uint256"
        }
      ],
      "name": "Withdrawn",
      "type": "event"
    },
    {
      "inputs": [],
      "name": "campaignCount",
      "outputs": [
        {
          "internalType": "uint256",
          "name": "",
          "type": "uint256"
        }
      ],
      "stateMutability": "view",
      "type": "function"
    },
    {
      "inputs": [
        {
          "internalType": "uint256",
          "name": "",
          "type": "uint256"
        },
        {
          "internalType": "uint256",
          "name": "",
          "type": "uint256"
        }
      ],
      "name": "campaignDonors",
      "outputs": [
        {
          "internalType": "address",
          "name": "",
          "type": "address"
        }
      ],
      "stateMutability": "view",
      "type": "function"
    },
    {
      "inputs": [
        {
          "internalType": "uint256",
          "name": "",
          "type": "uint256"
        }
      ],
      "name": "campaigns",
      "outputs": [
        {
          "internalType": "address",
          "name": "creator",
          "type": "address"
        },
        {
          "internalType": "string",
          "name": "title",
          "type": "string"
        },
        {
          "internalType": "string",
          "name": "description",
          "type": "string"
        },
        {
          "internalType": "uint256",
          "name": "goal",
          "type": "uint256"
        },
        {
          "internalType": "uint256",
          "name": "deadline",
          "type": "uint256"
        },
        {
          "internalType": "uint256",
          "name": "raised",
          "type": "uint256"
        },
        {
          "internalType": "enum Cryp1N.CampaignStatus",
          "name": "status",
          "type": "uint8"
        },
        {
          "internalType": "bool",
          "name": "goalReached",
          "type": "bool"
        },
        {
          "internalType": "bool",
          "name": "extended",
          "type": "bool"
        },
        {
          "internalType": "string",
          "name": "img",
          "type": "string"
        }
      ],
      "stateMutability": "view",
      "type": "function"
    },
    {
      "inputs": [
        {
          "internalType": "uint256",
          "name": "_id",
          "type": "uint256"
        }
      ],
      "name": "checkGoal",
      "outputs": [],
      "stateMutability": "nonpayable",
      "type": "function"
    },
    {
      "inputs": [
        {
          "internalType": "string",
          "name": "_title",
          "type": "string"
        },
        {
          "internalType": "string",
          "name": "_description",
          "type": "string"
        },
        {
          "internalType": "uint256",
          "name": "_goal",
          "type": "uint256"
        },
        {
          "internalType": "uint256",
          "name": "_deadline",
          "type": "uint256"
        },
        {
          "internalType": "string",
          "name": "_img",
          "type": "string"
        }
      ],
      "name": "createCampaign",
      "outputs": [],
      "stateMutability": "nonpayable",
      "type": "function"
    },
    {
      "inputs": [
        {
          "internalType": "uint256",
          "name": "_id",
          "type": "uint256"
        }
      ],
      "name": "donate",
      "outputs": [],
      "stateMutability": "payable",
      "type": "function"
    },
    {
      "inputs": [
        {
          "internalType": "address",
          "name": "",
          "type": "address"
        },
        {
          "internalType": "uint256",
          "name": "",
          "type": "uint256"
        }
      ],
      "name": "donatedCampaigns",
      "outputs": [
        {
          "internalType": "uint256",
          "name": "",
          "type": "uint256"
        }
      ],
      "stateMutability": "view",
      "type": "function"
    },
    {
      "inputs": [
        {
          "internalType": "uint256",
          "name": "",
          "type": "uint256"
        },
        {
          "internalType": "address",
          "name": "",
          "type": "address"
        }
      ],
      "name": "donations",
      "outputs": [
        {
          "internalType": "uint256",
          "name": "",
          "type": "uint256"
        }
      ],
      "stateMutability": "view",
      "type": "function"
    },
    {
      "inputs": [
        {
          "internalType": "uint256",
          "name": "_id",
          "type": "uint256"
        },
        {
          "internalType": "uint256",
          "name": "_newDeadline",
          "type": "uint256"
        }
      ],
      "name": "extendDeadline",
      "outputs": [],
      "stateMutability": "nonpayable",
      "type": "function"
    },
    {
      "inputs": [],
      "name": "getAllCampaigns",
      "outputs": [
        {
          "components": [
            {
              "internalType": "address",
              "name": "creator",
              "type": "address"
            },
            {
              "internalType": "string",
              "name": "title",
              "type": "string"
            },
            {
              "internalType": "string",
              "name": "description",
              "type": "string"
            },
            {
              "internalType": "uint256",
              "name": "goal",
              "type": "uint256"
            },
            {
              "internalType": "uint256",
              "name": "deadline",
              "type": "uint256"
            },
            {
              "internalType": "uint256",
              "name": "raised",
              "type": "uint256"
            },
            {
              "internalType": "enum Cryp1N.CampaignStatus",
              "name": "status",
              "type": "uint8"
            },
            {
              "internalType": "bool",
              "name": "goalReached",
              "type": "bool"
            },
            {
              "internalType": "bool",
              "name": "extended",
              "type": "bool"
            },
            {
              "internalType": "string",
              "name": "img",
              "type": "string"
            }
          ],
          "internalType": "struct Cryp1N.Campaign[]",
          "name": "",
          "type": "tuple[]"
        }
      ],
      "stateMutability": "view",
      "type": "function"
    },
    {
      "inputs": [
        {
          "internalType": "uint256",
          "name": "_id",
          "type": "uint256"
        }
      ],
      "name": "getCampaign",
      "outputs": [
        {
          "components": [
            {
              "internalType": "address",
              "name": "creator",
              "type": "address"
            },
            {
              "internalType": "string",
              "name": "title",
              "type": "string"
            },
            {
              "internalType": "string",
              "name": "description",
              "type": "string"
            },
            {
              "internalType": "uint256",
              "name": "goal",
              "type": "uint256"
            },
            {
              "internalType": "uint256",
              "name": "deadline",
              "type": "uint256"
            },
            {
              "internalType": "uint256",
              "name": "raised",
              "type": "uint256"
            },
            {
              "internalType": "enum Cryp1N.CampaignStatus",
              "name": "status",
              "type": "uint8"
            },
            {
              "internalType": "bool",
              "name": "goalReached",
              "type": "bool"
            },
            {
              "internalType": "bool",
              "name": "extended",
              "type": "bool"
            },
            {
              "internalType": "string",
              "name": "img",
              "type": "string"
            }
          ],
          "internalType": "struct Cryp1N.Campaign",
          "name": "",
          "type": "tuple"
        }
      ],
      "stateMutability": "view",
      "type": "function"
    },
    {
      "inputs": [
        {
          "internalType": "uint256",
          "name": "_id",
          "type": "uint256"
        }
      ],
      "name": "getCampaignDonors",
      "outputs": [
        {
          "internalType": "address[]",
          "name": "",
          "type": "address[]"
        }
      ],
      "stateMutability": "view",
      "type": "function"
    },
    {
      "inputs": [
        {
          "internalType": "uint256",
          "name": "_id",
          "type": "uint256"
        },
        {
          "internalType": "address",
          "name": "_donor",
          "type": "address"
        }
      ],
      "name": "getDonatedAmount",
      "outputs": [
        {
          "internalType": "uint256",
          "name": "",
          "type": "uint256"
        }
      ],
      "stateMutability": "view",
      "type": "function"
    },
    {
      "inputs": [],
      "name": "getMyDonatedCampaigns",
      "outputs": [
        {
          "internalType": "uint256[]",
          "name": "",
          "type": "uint256[]"
        }
      ],
      "stateMutability": "view",
      "type": "function"
    },
    {
      "inputs": [
        {
          "internalType": "uint256",
          "name": "_id",
          "type": "uint256"
        }
      ],
      "name": "releaseFunds",
      "outputs": [],
      "stateMutability": "nonpayable",
      "type": "function"
    }
  ],
  "bytecode": "0x6080604052600060015534801561001557600080fd5b506001600055611f848061002a6000396000f3fe6080604052600436106100e85760003560e01c806386cdf6041161008a578063e6160c1111610059578063e6160c1114610290578063ee1554a3146102b0578063f14faf6f146102e8578063f25e1e93146102fb57600080fd5b806386cdf6041461020c5780639690e0e91461022e578063ac7729fb1461024e578063d4e3dd6f1461027057600080fd5b80634d68282f116100c65780634d68282f1461017b578063500360a61461019b5780635598f8cc146101c95780637274e30d146101f657600080fd5b8063141961bc146100ed578063209b7d5f1461012c5780632d1fdef614610159575b600080fd5b3480156100f957600080fd5b5061010d610108366004611984565b610333565b6040516101239a99989796959493929190611a22565b60405180910390f35b34801561013857600080fd5b5061014c610147366004611984565b610533565b6040516101239190611ab1565b34801561016557600080fd5b50610179610174366004611afe565b6105d9565b005b34801561018757600080fd5b50610179610196366004611984565b610824565b3480156101a757600080fd5b506101bb6101b6366004611b3c565b610a4a565b604051908152602001610123565b3480156101d557600080fd5b506101e96101e4366004611984565b610aa5565b6040516101239190611c22565b34801561020257600080fd5b506101bb60015481565b34801561021857600080fd5b50610221610d3f565b6040516101239190611c3c565b34801561023a57600080fd5b50610179610249366004611984565b611045565b34801561025a57600080fd5b50610263611191565b6040516101239190611c9e565b34801561027c57600080fd5b5061017961028b366004611d79565b6111f2565b34801561029c57600080fd5b506101bb6102ab366004611e15565b611446565b3480156102bc57600080fd5b506101bb6102cb366004611b3c565b600360209081526000928352604080842090915290825290205481565b6101796102f6366004611984565b611477565b34801561030757600080fd5b5061031b610316366004611afe565b6117ee565b6040516001600160a01b039091168152602001610123565b600260205260009081526040902080546001820180546001600160a01b03909216929161035f90611e3f565b80601f016020809104026020016040519081016040528092919081815260200182805461038b90611e3f565b80156103d85780601f106103ad576101008083540402835291602001916103d8565b820191906000526020600020905b8154815290600101906020018083116103bb57829003601f168201915b5050505050908060020180546103ed90611e3f565b80601f016020809104026020016040519081016040528092919081815260200182805461041990611e3f565b80156104665780601f1061043b57610100808354040283529160200191610466565b820191906000526020600020905b81548152906001019060200180831161044957829003601f168201915b50505050600383015460048401546005850154600686015460078701805496979496939550919360ff8083169461010084048216946201000090940490911692906104b090611e3f565b80601f01602080910402602001604051908101604052809291908181526020018280546104dc90611e3f565b80156105295780601f106104fe57610100808354040283529160200191610529565b820191906000526020600020905b81548152906001019060200180831161050c57829003601f168201915b505050505090508a565b60608160008111801561054857506001548111155b61056d5760405162461bcd60e51b815260040161056490611e74565b60405180910390fd5b600083815260056020908152604091829020805483518184028101840190945280845290918301828280156105cb57602002820191906000526020600020905b81546001600160a01b031681526001909101906020018083116105ad575b505050505091505b50919050565b816000811180156105ec57506001548111155b6106085760405162461bcd60e51b815260040161056490611e74565b60008381526002602052604090205483906001600160a01b031633146106675760405162461bcd60e51b81526020600482015260146024820152732737ba1031b0b6b830b4b3b71031b932b0ba37b960611b6044820152606401610564565b836000808281526002602052604090206006015460ff16600381111561068f5761068f6119ea565b146106ac5760405162461bcd60e51b815260040161056490611eab565b60008581526002602052604090206004810154421061070d5760405162461bcd60e51b815260206004820152601760248201527f446561646c696e6520616c7265616479207061737365640000000000000000006044820152606401610564565b600681015462010000900460ff16156107735760405162461bcd60e51b815260206004820152602260248201527f446561646c696e652063616e206f6e6c7920626520657874656e646564206f6e604482015261636560f01b6064820152608401610564565b806004015485116107c65760405162461bcd60e51b815260206004820152601c60248201527f4d75737420657874656e642062792061746c65617374203120646179000000006044820152606401610564565b6004810185905560068101805462ff000019166201000017905560405186907f073d5fd87a7e0c2a384727f9aab2e84826370623aba582638b425a417e799a2c906108149088815260200190565b60405180910390a2505050505050565b8060008111801561083757506001548111155b6108535760405162461bcd60e51b815260040161056490611e74565b60008281526002602052604090205482906001600160a01b031633146108b25760405162461bcd60e51b81526020600482015260146024820152732737ba1031b0b6b830b4b3b71031b932b0ba37b960611b6044820152606401610564565b6108ba611826565b60008381526002602052604090206001600682015460ff1660038111156108e3576108e36119ea565b148061090757506002600682015460ff166003811115610905576109056119ea565b145b61094c5760405162461bcd60e51b815260206004820152601660248201527510d85b5c185a59db881b9bdd0818dbdb5c1b195d195960521b6044820152606401610564565b6003600682015460ff166003811115610967576109676119ea565b14156109a95760405162461bcd60e51b815260206004820152601160248201527020b63932b0b23c903bb4ba34323930bbb760791b6044820152606401610564565b60058101805460009182905560068301805460ff19166003179055825460405191926001600160a01b03909116916108fc84150291849190818181858888f193505050501580156109fe573d6000803e3d6000fd5b50847f0c875c8d391179c5cf7ad8303d268efd50b8beb78b671f85cd54bfb91eb8ef4082604051610a3191815260200190565b60405180910390a25050610a456001600055565b505050565b600082600081118015610a5f57506001548111155b610a7b5760405162461bcd60e51b815260040161056490611e74565b505060009182526003602090815260408084206001600160a01b0393909316845291905290205490565b610aad611880565b81600081118015610ac057506001548111155b610adc5760405162461bcd60e51b815260040161056490611e74565b6000838152600260209081526040918290208251610140810190935280546001600160a01b031683526001810180549192840191610b1990611e3f565b80601f0160208091040260200160405190810160405280929190818152602001828054610b4590611e3f565b8015610b925780601f10610b6757610100808354040283529160200191610b92565b820191906000526020600020905b815481529060010190602001808311610b7557829003601f168201915b50505050508152602001600282018054610bab90611e3f565b80601f0160208091040260200160405190810160405280929190818152602001828054610bd790611e3f565b8015610c245780601f10610bf957610100808354040283529160200191610c24565b820191906000526020600020905b815481529060010190602001808311610c0757829003601f168201915b505050918352505060038281015460208301526004830154604083015260058301546060830152600683015460809092019160ff1690811115610c6957610c696119ea565b6003811115610c7a57610c7a6119ea565b8152600682015460ff6101008204811615156020840152620100009091041615156040820152600782018054606090920191610cb590611e3f565b80601f0160208091040260200160405190810160405280929190818152602001828054610ce190611e3f565b8015610d2e5780601f10610d0357610100808354040283529160200191610d2e565b820191906000526020600020905b815481529060010190602001808311610d1157829003601f168201915b505050505081525050915050919050565b6060600060015467ffffffffffffffff811115610d5e57610d5e611cd6565b604051908082528060200260200182016040528015610d9757816020015b610d84611880565b815260200190600190039081610d7c5790505b50905060005b6001548110156105d35760026000610db6836001611eee565b815260208082019290925260409081016000208151610140810190925280546001600160a01b031682526001810180549293919291840191610df790611e3f565b80601f0160208091040260200160405190810160405280929190818152602001828054610e2390611e3f565b8015610e705780601f10610e4557610100808354040283529160200191610e70565b820191906000526020600020905b815481529060010190602001808311610e5357829003601f168201915b50505050508152602001600282018054610e8990611e3f565b80601f0160208091040260200160405190810160405280929190818152602001828054610eb590611e3f565b8015610f025780601f10610ed757610100808354040283529160200191610f02565b820191906000526020600020905b815481529060010190602001808311610ee557829003601f168201915b505050918352505060038281015460208301526004830154604083015260058301546060830152600683015460809092019160ff1690811115610f4757610f476119ea565b6003811115610f5857610f586119ea565b8152600682015460ff6101008204811615156020840152620100009091041615156040820152600782018054606090920191610f9390611e3f565b80601f0160208091040260200160405190810160405280929190818152602001828054610fbf90611e3f565b801561100c5780601f10610fe15761010080835404028352916020019161100c565b820191906000526020600020905b815481529060010190602001808311610fef57829003601f168201915b50505050508152505082828151811061102757611027611f06565b6020026020010181905250808061103d90611f1c565b915050610d9d565b8060008111801561105857506001548111155b6110745760405162461bcd60e51b815260040161056490611e74565b816000808281526002602052604090206006015460ff16600381111561109c5761109c6119ea565b146110b95760405162461bcd60e51b815260040161056490611eab565b6000838152600260205260409020600481015442116111125760405162461bcd60e51b815260206004820152601560248201527443616d706169676e207374696c6c2061637469766560581b6044820152606401610564565b80600301548160050154106111375760068101805461ffff1916610101179055611147565b60068101805460ff191660021790555b600681015460405161010090910460ff161515815284907fb08312190b5508b59f34a0cda3a5b1010da8272854d7556b9fc6e126c22fe49d9060200160405180910390a250505050565b336000908152600460209081526040918290208054835181840281018401909452808452606093928301828280156111e857602002820191906000526020600020905b8154815260200190600101908083116111d4575b5050505050905090565b600083116112425760405162461bcd60e51b815260206004820152601b60248201527f476f616c206d7573742062652067726561746572207468616e203000000000006044820152606401610564565b4282116112915760405162461bcd60e51b815260206004820152601e60248201527f446561646c696e65206d75737420626520696e207468652066757475726500006044820152606401610564565b600180549060006112a183611f1c565b9190505550604051806101400160405280336001600160a01b0316815260200186815260200185815260200184815260200183815260200160008152602001600060038111156112f3576112f36119ea565b815260006020808301829052604080840183905260609093018590526001805483526002825292909120835181546001600160a01b0319166001600160a01b03909116178155838201518051919361135193908501929101906118eb565b506040820151805161136d9160028401916020909101906118eb565b50606082015181600301556080820151816004015560a0820151816005015560c08201518160060160006101000a81548160ff021916908360038111156113b6576113b66119ea565b021790555060e0820151600682018054610100808601511515620100000262ff0000199415159091029390931662ffff001990911617919091179055610120820151805161140e9160078401916020909101906118eb565b50506001546040513392507f633109eec20320eded000fc1e2634211aa7e92ba3f5b15faf6dcdafca05094e490600090a35050505050565b6004602052816000526040600020818154811061146257600080fd5b90600052602060002001600091509150505481565b8060008111801561148a57506001548111155b6114a65760405162461bcd60e51b815260040161056490611e74565b816000808281526002602052604090206006015460ff1660038111156114ce576114ce6119ea565b146114eb5760405162461bcd60e51b815260040161056490611eab565b6114f3611826565b6000838152600260205260409020600481015442111561159a57604051639690e0e960e01b8152600481018590523090639690e0e990602401600060405180830381600087803b15801561154657600080fd5b505af115801561155a573d6000803e3d6000fd5b505060405162461bcd60e51b815260206004820152600f60248201526e111958591b1a5b99481c185cdcd959608a1b604482015260640191506105649050565b600034116115ea5760405162461bcd60e51b815260206004820152601760248201527f4d7573742073656e642045544820746f20646f6e6174650000000000000000006044820152606401610564565b6000816005015482600301546116009190611f37565b9050600081116116495760405162461bcd60e51b815260206004820152601460248201527311dbd85b08185b1c9958591e481c995858da195960621b6044820152606401610564565b6000813411611658573461165a565b815b90508034111561169c57336108fc6116728334611f37565b6040518115909202916000818181858888f1935050505015801561169a573d6000803e3d6000fd5b505b600086815260036020908152604080832033845290915290205461170757336000818152600460209081526040808320805460018181018355918552838520018b90558a84526005835290832080549182018155835291200180546001600160a01b03191690911790555b600086815260036020908152604080832033845290915281208054839290611730908490611eee565b925050819055508083600501600082825461174b9190611eee565b9091555050604051818152339087907f1b606d34afacd55873aba0fd274841a10c63e18455f2dffebad2fc60a36b2c839060200160405180910390a38260030154836005015414156117e15760068301805461010161ffff199091161790556040516001815286907fb08312190b5508b59f34a0cda3a5b1010da8272854d7556b9fc6e126c22fe49d9060200160405180910390a25b505050610a456001600055565b6005602052816000526040600020818154811061180a57600080fd5b6000918252602090912001546001600160a01b03169150829050565b600260005414156118795760405162461bcd60e51b815260206004820152601f60248201527f5265656e7472616e637947756172643a207265656e7472616e742063616c6c006044820152606401610564565b6002600055565b60405180610140016040528060006001600160a01b031681526020016060815260200160608152602001600081526020016000815260200160008152602001600060038111156118d2576118d26119ea565b8152600060208201819052604082015260609081015290565b8280546118f790611e3f565b90600052602060002090601f016020900481019282611919576000855561195f565b82601f1061193257805160ff191683800117855561195f565b8280016001018555821561195f579182015b8281111561195f578251825591602001919060010190611944565b5061196b92915061196f565b5090565b5b8082111561196b5760008155600101611970565b60006020828403121561199657600080fd5b5035919050565b6000815180845260005b818110156119c3576020818501810151868301820152016119a7565b818111156119d5576000602083870101525b50601f01601f19169290920160200192915050565b634e487b7160e01b600052602160045260246000fd5b60048110611a1e57634e487b7160e01b600052602160045260246000fd5b9052565b6001600160a01b038b16815261014060208201819052600090611a478382018d61199d565b90508281036040840152611a5b818c61199d565b90508960608401528860808401528760a0840152611a7c60c0840188611a00565b85151560e0840152841515610100840152828103610120840152611aa0818561199d565b9d9c50505050505050505050505050565b6020808252825182820181905260009190848201906040850190845b81811015611af25783516001600160a01b031683529284019291840191600101611acd565b50909695505050505050565b60008060408385031215611b1157600080fd5b50508035926020909101359150565b80356001600160a01b0381168114611b3757600080fd5b919050565b60008060408385031215611b4f57600080fd5b82359150611b5f60208401611b20565b90509250929050565b80516001600160a01b0316825260006101406020830151816020860152611b918286018261199d565b91505060408301518482036040860152611bab828261199d565b915050606083015160608501526080830151608085015260a083015160a085015260c0830151611bde60c0860182611a00565b5060e0830151611bf260e086018215159052565b50610100838101511515908501526101208084015185830382870152611c18838261199d565b9695505050505050565b602081526000611c356020830184611b68565b9392505050565b6000602080830181845280855180835260408601915060408160051b870101925083870160005b82811015611c9157603f19888603018452611c7f858351611b68565b94509285019290850190600101611c63565b5092979650505050505050565b6020808252825182820181905260009190848201906040850190845b81811015611af257835183529284019291840191600101611cba565b634e487b7160e01b600052604160045260246000fd5b600082601f830112611cfd57600080fd5b813567ffffffffffffffff80821115611d1857611d18611cd6565b604051601f8301601f19908116603f01168101908282118183101715611d4057611d40611cd6565b81604052838152866020858801011115611d5957600080fd5b836020870160208301376000602085830101528094505050505092915050565b600080600080600060a08688031215611d9157600080fd5b853567ffffffffffffffff80821115611da957600080fd5b611db589838a01611cec565b96506020880135915080821115611dcb57600080fd5b611dd789838a01611cec565b955060408801359450606088013593506080880135915080821115611dfb57600080fd5b50611e0888828901611cec565b9150509295509295909350565b60008060408385031215611e2857600080fd5b611e3183611b20565b946020939093013593505050565b600181811c90821680611e5357607f821691505b602082108114156105d357634e487b7160e01b600052602260045260246000fd5b60208082526017908201527f43616d706169676e20646f6573206e6f74206578697374000000000000000000604082015260600190565b60208082526013908201527243616d706169676e206e6f742061637469766560681b604082015260600190565b634e487b7160e01b600052601160045260246000fd5b60008219821115611f0157611f01611ed8565b500190565b634e487b7160e01b600052603260045260246000fd5b6000600019821415611f3057611f30611ed8565b5060010190565b600082821015611f4957611f49611ed8565b50039056fea26469706673582212205fc7a01a7a6c6ca4c250ae15fbcba95c8816a852945e9dc56019267ad2f1e85064736f6c63430008090033",
  "linkReferences": {},
  "deployedLinkReferences": {}
}