{
  "_format": "hh-sol-artifact-1",
  "contractName": "crypD",
  "sourceName": "contracts/crypD.sol",
  "abi": [
    {
      "anonymous": false,
      "inputs": [
        {
          "indexed": true,
          "internalType": "uint256",
          "name": "campaignId",
          "type": "uint256"
        },
        {
          "indexed": false,
          "internalType": "bool",
          "name": "successful",
          "type": "bool"
        }
      ],
      "name": "CampaignClosed",
      "type": "event"
    },
    {
      "anonymous": false,
      "inputs": [
        {
          "indexed": true,
          "internalType": "uint256",
          "name": "campaignId",
          "type": "uint256"
        },
        {
          "indexed": true,
          "internalType": "address",
          "name": "creator",
          "type": "address"
        }
      ],
      "name": "CampaignCreated",
      "type": "event"
    },
    {
      "anonymous": false,
      "inputs": [
        {
          "indexed": true,
          "internalType": "uint256",
          "name": "campaignId",
          "type": "uint256"
        },
        {
          "indexed": false,
          "internalType": "uint256",
          "name": "newDeadline",
          "type": "uint256"
        }
      ],
      "name": "DeadlineExtended",
      "type": "event"
    },
    {
      "anonymous": false,
      "inputs": [
        {
          "indexed": true,
          "internalType": "uint256",
          "name": "campaignId",
          "type": "uint256"
        },
        {
          "indexed": true,
          "internalType": "address",
          "name": "donor",
          "type": "address"
        },
        {
          "indexed": false,
          "internalType": "uint256",
          "name": "amount",
          "type": "uint256"
        }
      ],
      "name": "Donated",
      "type": "event"
    },
    {
      "anonymous": false,
      "inputs": [
        {
          "indexed": true,
          "internalType": "uint256",
          "name": "campaignId",
          "type": "uint256"
        },
        {
          "indexed": false,
          "internalType": "uint256",
          "name": "amount",
          "type": "uint256"
        }
      ],
      "name": "Withdrawn",
      "type": "event"
    },
    {
      "inputs": [],
      "name": "campaignCount",
      "outputs": [
        {
          "internalType": "uint256",
          "name": "",
          "type": "uint256"
        }
      ],
      "stateMutability": "view",
      "type": "function"
    },
    {
      "inputs": [
        {
          "internalType": "uint256",
          "name": "",
          "type": "uint256"
        },
        {
          "internalType": "uint256",
          "name": "",
          "type": "uint256"
        }
      ],
      "name": "campaignDonors",
      "outputs": [
        {
          "internalType": "address",
          "name": "",
          "type": "address"
        }
      ],
      "stateMutability": "view",
      "type": "function"
    },
    {
      "inputs": [
        {
          "internalType": "uint256",
          "name": "",
          "type": "uint256"
        }
      ],
      "name": "campaigns",
      "outputs": [
        {
          "internalType": "address",
          "name": "creator",
          "type": "address"
        },
        {
          "internalType": "string",
          "name": "title",
          "type": "string"
        },
        {
          "internalType": "string",
          "name": "description",
          "type": "string"
        },
        {
          "internalType": "uint256",
          "name": "goal",
          "type": "uint256"
        },
        {
          "internalType": "uint256",
          "name": "deadline",
          "type": "uint256"
        },
        {
          "internalType": "uint256",
          "name": "raised",
          "type": "uint256"
        },
        {
          "internalType": "enum crypD.CampaignStatus",
          "name": "status",
          "type": "uint8"
        },
        {
          "internalType": "bool",
          "name": "extended",
          "type": "bool"
        },
        {
          "internalType": "string",
          "name": "img",
          "type": "string"
        },
        {
          "internalType": "string",
          "name": "video",
          "type": "string"
        }
      ],
      "stateMutability": "view",
      "type": "function"
    },
    {
      "inputs": [
        {
          "internalType": "uint256",
          "name": "_id",
          "type": "uint256"
        }
      ],
      "name": "closeCampaign",
      "outputs": [],
      "stateMutability": "nonpayable",
      "type": "function"
    },
    {
      "inputs": [
        {
          "internalType": "string",
          "name": "_title",
          "type": "string"
        },
        {
          "internalType": "string",
          "name": "_description",
          "type": "string"
        },
        {
          "internalType": "uint256",
          "name": "_goal",
          "type": "uint256"
        },
        {
          "internalType": "uint256",
          "name": "_deadline",
          "type": "uint256"
        },
        {
          "internalType": "string",
          "name": "_img",
          "type": "string"
        },
        {
          "internalType": "string",
          "name": "_video",
          "type": "string"
        }
      ],
      "name": "createCampaign",
      "outputs": [],
      "stateMutability": "nonpayable",
      "type": "function"
    },
    {
      "inputs": [
        {
          "internalType": "uint256",
          "name": "_id",
          "type": "uint256"
        }
      ],
      "name": "donate",
      "outputs": [],
      "stateMutability": "payable",
      "type": "function"
    },
    {
      "inputs": [
        {
          "internalType": "address",
          "name": "",
          "type": "address"
        },
        {
          "internalType": "uint256",
          "name": "",
          "type": "uint256"
        }
      ],
      "name": "donatedCampaigns",
      "outputs": [
        {
          "internalType": "uint256",
          "name": "",
          "type": "uint256"
        }
      ],
      "stateMutability": "view",
      "type": "function"
    },
    {
      "inputs": [
        {
          "internalType": "uint256",
          "name": "",
          "type": "uint256"
        },
        {
          "internalType": "address",
          "name": "",
          "type": "address"
        }
      ],
      "name": "donations",
      "outputs": [
        {
          "internalType": "uint256",
          "name": "",
          "type": "uint256"
        }
      ],
      "stateMutability": "view",
      "type": "function"
    },
    {
      "inputs": [
        {
          "internalType": "uint256",
          "name": "_id",
          "type": "uint256"
        },
        {
          "internalType": "uint256",
          "name": "_newDeadline",
          "type": "uint256"
        }
      ],
      "name": "extendDeadline",
      "outputs": [],
      "stateMutability": "nonpayable",
      "type": "function"
    },
    {
      "inputs": [],
      "name": "getAllCampaigns",
      "outputs": [
        {
          "components": [
            {
              "internalType": "address",
              "name": "creator",
              "type": "address"
            },
            {
              "internalType": "string",
              "name": "title",
              "type": "string"
            },
            {
              "internalType": "string",
              "name": "description",
              "type": "string"
            },
            {
              "internalType": "uint256",
              "name": "goal",
              "type": "uint256"
            },
            {
              "internalType": "uint256",
              "name": "deadline",
              "type": "uint256"
            },
            {
              "internalType": "uint256",
              "name": "raised",
              "type": "uint256"
            },
            {
              "internalType": "enum crypD.CampaignStatus",
              "name": "status",
              "type": "uint8"
            },
            {
              "internalType": "bool",
              "name": "extended",
              "type": "bool"
            },
            {
              "internalType": "string",
              "name": "img",
              "type": "string"
            },
            {
              "internalType": "string",
              "name": "video",
              "type": "string"
            }
          ],
          "internalType": "struct crypD.Campaign[]",
          "name": "",
          "type": "tuple[]"
        }
      ],
      "stateMutability": "view",
      "type": "function"
    },
    {
      "inputs": [
        {
          "internalType": "uint256",
          "name": "_id",
          "type": "uint256"
        }
      ],
      "name": "getCampaign",
      "outputs": [
        {
          "components": [
            {
              "internalType": "address",
              "name": "creator",
              "type": "address"
            },
            {
              "internalType": "string",
              "name": "title",
              "type": "string"
            },
            {
              "internalType": "string",
              "name": "description",
              "type": "string"
            },
            {
              "internalType": "uint256",
              "name": "goal",
              "type": "uint256"
            },
            {
              "internalType": "uint256",
              "name": "deadline",
              "type": "uint256"
            },
            {
              "internalType": "uint256",
              "name": "raised",
              "type": "uint256"
            },
            {
              "internalType": "enum crypD.CampaignStatus",
              "name": "status",
              "type": "uint8"
            },
            {
              "internalType": "bool",
              "name": "extended",
              "type": "bool"
            },
            {
              "internalType": "string",
              "name": "img",
              "type": "string"
            },
            {
              "internalType": "string",
              "name": "video",
              "type": "string"
            }
          ],
          "internalType": "struct crypD.Campaign",
          "name": "",
          "type": "tuple"
        }
      ],
      "stateMutability": "view",
      "type": "function"
    },
    {
      "inputs": [
        {
          "internalType": "uint256",
          "name": "_id",
          "type": "uint256"
        }
      ],
      "name": "getCampaignDonors",
      "outputs": [
        {
          "internalType": "address[]",
          "name": "",
          "type": "address[]"
        }
      ],
      "stateMutability": "view",
      "type": "function"
    },
    {
      "inputs": [
        {
          "internalType": "uint256",
          "name": "_id",
          "type": "uint256"
        }
      ],
      "name": "getCampaignStatus",
      "outputs": [
        {
          "internalType": "string",
          "name": "",
          "type": "string"
        }
      ],
      "stateMutability": "view",
      "type": "function"
    },
    {
      "inputs": [
        {
          "internalType": "uint256",
          "name": "_id",
          "type": "uint256"
        },
        {
          "internalType": "address",
          "name": "_donor",
          "type": "address"
        }
      ],
      "name": "getDonatedAmount",
      "outputs": [
        {
          "internalType": "uint256",
          "name": "",
          "type": "uint256"
        }
      ],
      "stateMutability": "view",
      "type": "function"
    },
    {
      "inputs": [],
      "name": "getMyDonatedCampaigns",
      "outputs": [
        {
          "internalType": "uint256[]",
          "name": "",
          "type": "uint256[]"
        }
      ],
      "stateMutability": "view",
      "type": "function"
    },
    {
      "inputs": [
        {
          "internalType": "uint256",
          "name": "_id",
          "type": "uint256"
        }
      ],
      "name": "releaseFunds",
      "outputs": [],
      "stateMutability": "nonpayable",
      "type": "function"
    }
  ],
  "bytecode": "0x60806040526000805534801561001457600080fd5b5061246a806100246000396000f3fe6080604052600436106100f35760003560e01c806386cdf6041161008a578063e6160c1111610059578063e6160c11146102c8578063ee1554a3146102e8578063f14faf6f14610320578063f25e1e931461033357600080fd5b806386cdf604146102445780639f752cdd14610266578063ac7729fb14610286578063b0e1c1e1146102a857600080fd5b8063500360a6116100c6578063500360a6146101a65780635598f8cc146101d45780636c19e004146102015780637274e30d1461022e57600080fd5b8063141961bc146100f8578063209b7d5f146101375780632d1fdef6146101645780634d68282f14610186575b600080fd5b34801561010457600080fd5b50610118610113366004611dce565b61036b565b60405161012e9a99989796959493929190611e6c565b60405180910390f35b34801561014357600080fd5b50610157610152366004611dce565b6105f0565b60405161012e9190611f07565b34801561017057600080fd5b5061018461017f366004611f54565b610696565b005b34801561019257600080fd5b506101846101a1366004611dce565b6108c7565b3480156101b257600080fd5b506101c66101c1366004611f92565b610a88565b60405190815260200161012e565b3480156101e057600080fd5b506101f46101ef366004611dce565b610ae3565b60405161012e9190612087565b34801561020d57600080fd5b5061022161021c366004611dce565b610dfd565b60405161012e91906120a1565b34801561023a57600080fd5b506101c660005481565b34801561025057600080fd5b5061025961125b565b60405161012e91906120b4565b34801561027257600080fd5b506101846102813660046121b9565b6115e1565b34801561029257600080fd5b5061029b61181f565b60405161012e9190612278565b3480156102b457600080fd5b506101846102c3366004611dce565b611880565b3480156102d457600080fd5b506101c66102e33660046122b0565b6119b7565b3480156102f457600080fd5b506101c6610303366004611f92565b600260209081526000928352604080842090915290825290205481565b61018461032e366004611dce565b6119e8565b34801561033f57600080fd5b5061035361034e366004611f54565b611c92565b6040516001600160a01b03909116815260200161012e565b6001602081905260009182526040909120805491810180546001600160a01b0390931692610398906122da565b80601f01602080910402602001604051908101604052809291908181526020018280546103c4906122da565b80156104115780601f106103e657610100808354040283529160200191610411565b820191906000526020600020905b8154815290600101906020018083116103f457829003601f168201915b505050505090806002018054610426906122da565b80601f0160208091040260200160405190810160405280929190818152602001828054610452906122da565b801561049f5780601f106104745761010080835404028352916020019161049f565b820191906000526020600020905b81548152906001019060200180831161048257829003601f168201915b50505050600383015460048401546005850154600686015460078701805496979496939550919360ff80831694610100909304169290916104df906122da565b80601f016020809104026020016040519081016040528092919081815260200182805461050b906122da565b80156105585780601f1061052d57610100808354040283529160200191610558565b820191906000526020600020905b81548152906001019060200180831161053b57829003601f168201915b50505050509080600801805461056d906122da565b80601f0160208091040260200160405190810160405280929190818152602001828054610599906122da565b80156105e65780601f106105bb576101008083540402835291602001916105e6565b820191906000526020600020905b8154815290600101906020018083116105c957829003601f168201915b505050505090508a565b60608160008111801561060557506000548111155b61062a5760405162461bcd60e51b81526004016106219061230f565b60405180910390fd5b6000838152600460209081526040918290208054835181840281018401909452808452909183018282801561068857602002820191906000526020600020905b81546001600160a01b0316815260019091019060200180831161066a575b505050505091505b50919050565b816000811180156106a957506000548111155b6106c55760405162461bcd60e51b81526004016106219061230f565b60008381526001602052604090205483906001600160a01b031633146106fd5760405162461bcd60e51b815260040161062190612346565b836000808281526001602052604090206006015460ff16600281111561072557610725611e34565b146107425760405162461bcd60e51b815260040161062190612387565b6000858152600160205260409020600481015442106107a35760405162461bcd60e51b815260206004820152601b60248201527f446561646c696e6520697320616c7265616479207061737365642100000000006044820152606401610621565b6006810154610100900460ff161561080c5760405162461bcd60e51b815260206004820152602660248201527f596f752063616e20657874656e642074686520646561646c696e65206f6e6c79604482015265206f6e63652160d01b6064820152608401610621565b8060040154851161086b5760405162461bcd60e51b815260206004820152602360248201527f4e657720646561646c696e65206d75737420626520696e20746865206675747560448201526272652160e81b6064820152608401610621565b6004810185905560068101805461ff00191661010017905560405186907f073d5fd87a7e0c2a384727f9aab2e84826370623aba582638b425a417e799a2c906108b79088815260200190565b60405180910390a2505050505050565b806000811180156108da57506000548111155b6108f65760405162461bcd60e51b81526004016106219061230f565b60008281526001602052604090205482906001600160a01b0316331461092e5760405162461bcd60e51b815260040161062190612346565b600083815260016020819052604090912090600682015460ff16600281111561095957610959611e34565b146109a65760405162461bcd60e51b815260206004820152601b60248201527f43616d706169676e206973206e6f7420636c6f736564207965742100000000006044820152606401610621565b60008160050154116109f15760405162461bcd60e51b81526020600482015260146024820152734e6f2066756e647320746f2072656c656173652160601b6044820152606401610621565b60058101805460009182905560068301805460ff19166002179055825460405191926001600160a01b03909116916108fc84150291849190818181858888f19350505050158015610a46573d6000803e3d6000fd5b50847f0c875c8d391179c5cf7ad8303d268efd50b8beb78b671f85cd54bfb91eb8ef4082604051610a7991815260200190565b60405180910390a25050505050565b600082600081118015610a9d57506000548111155b610ab95760405162461bcd60e51b81526004016106219061230f565b505060009182526002602090815260408084206001600160a01b0393909316845291905290205490565b610aeb611cca565b81600081118015610afe57506000548111155b610b1a5760405162461bcd60e51b81526004016106219061230f565b6000838152600160208181526040928390208351610140810190945280546001600160a01b03168452918201805491840191610b55906122da565b80601f0160208091040260200160405190810160405280929190818152602001828054610b81906122da565b8015610bce5780601f10610ba357610100808354040283529160200191610bce565b820191906000526020600020905b815481529060010190602001808311610bb157829003601f168201915b50505050508152602001600282018054610be7906122da565b80601f0160208091040260200160405190810160405280929190818152602001828054610c13906122da565b8015610c605780601f10610c3557610100808354040283529160200191610c60565b820191906000526020600020905b815481529060010190602001808311610c4357829003601f168201915b5050509183525050600382015460208201526004820154604082015260058201546060820152600682015460809091019060ff166002811115610ca557610ca5611e34565b6002811115610cb657610cb6611e34565b81526006820154610100900460ff1615156020820152600782018054604090920191610ce1906122da565b80601f0160208091040260200160405190810160405280929190818152602001828054610d0d906122da565b8015610d5a5780601f10610d2f57610100808354040283529160200191610d5a565b820191906000526020600020905b815481529060010190602001808311610d3d57829003601f168201915b50505050508152602001600882018054610d73906122da565b80601f0160208091040260200160405190810160405280929190818152602001828054610d9f906122da565b8015610dec5780601f10610dc157610100808354040283529160200191610dec565b820191906000526020600020905b815481529060010190602001808311610dcf57829003601f168201915b505050505081525050915050919050565b606081600081118015610e1257506000548111155b610e2e5760405162461bcd60e51b81526004016106219061230f565b60008381526001602081815260408084208151610140810190925280546001600160a01b031682529283018054919392840191610e6a906122da565b80601f0160208091040260200160405190810160405280929190818152602001828054610e96906122da565b8015610ee35780601f10610eb857610100808354040283529160200191610ee3565b820191906000526020600020905b815481529060010190602001808311610ec657829003601f168201915b50505050508152602001600282018054610efc906122da565b80601f0160208091040260200160405190810160405280929190818152602001828054610f28906122da565b8015610f755780601f10610f4a57610100808354040283529160200191610f75565b820191906000526020600020905b815481529060010190602001808311610f5857829003601f168201915b5050509183525050600382015460208201526004820154604082015260058201546060820152600682015460809091019060ff166002811115610fba57610fba611e34565b6002811115610fcb57610fcb611e34565b81526006820154610100900460ff1615156020820152600782018054604090920191610ff6906122da565b80601f0160208091040260200160405190810160405280929190818152602001828054611022906122da565b801561106f5780601f106110445761010080835404028352916020019161106f565b820191906000526020600020905b81548152906001019060200180831161105257829003601f168201915b50505050508152602001600882018054611088906122da565b80601f01602080910402602001604051908101604052809291908181526020018280546110b4906122da565b80156111015780601f106110d657610100808354040283529160200191611101565b820191906000526020600020905b8154815290600101906020018083116110e457829003601f168201915b505050505081525050905060028081111561111e5761111e611e34565b8160c00151600281111561113457611134611e34565b1415611163576040518060400160405280600881526020016714995b19585cd95960c21b815250925050610690565b60018160c00151600281111561117b5761117b611e34565b14156111ee5780606001518160a0015110156111bd576040518060400160405280600e81526020016d10db1bdcd9590e8811985a5b195960921b8152506111e6565b6040518060400160405280600f81526020016e436c6f7365643a205375636365737360881b8152505b925050610690565b80608001514211156112365780606001518160a0015110156111bd576040518060400160405280600e81526020016d10db1bdcd9590e8811985a5b195960921b8152506111e6565b505060408051808201909152600681526541637469766560d01b602082015292915050565b60606000805467ffffffffffffffff81111561127957611279612116565b6040519080825280602002602001820160405280156112b257816020015b61129f611cca565b8152602001906001900390816112975790505b50905060005b60005481101561069057600160006112d083836123d4565b815260208082019290925260409081016000208151610140810190925280546001600160a01b031682526001810180549293919291840191611311906122da565b80601f016020809104026020016040519081016040528092919081815260200182805461133d906122da565b801561138a5780601f1061135f5761010080835404028352916020019161138a565b820191906000526020600020905b81548152906001019060200180831161136d57829003601f168201915b505050505081526020016002820180546113a3906122da565b80601f01602080910402602001604051908101604052809291908181526020018280546113cf906122da565b801561141c5780601f106113f15761010080835404028352916020019161141c565b820191906000526020600020905b8154815290600101906020018083116113ff57829003601f168201915b5050509183525050600382015460208201526004820154604082015260058201546060820152600682015460809091019060ff16600281111561146157611461611e34565b600281111561147257611472611e34565b81526006820154610100900460ff161515602082015260078201805460409092019161149d906122da565b80601f01602080910402602001604051908101604052809291908181526020018280546114c9906122da565b80156115165780601f106114eb57610100808354040283529160200191611516565b820191906000526020600020905b8154815290600101906020018083116114f957829003601f168201915b5050505050815260200160088201805461152f906122da565b80601f016020809104026020016040519081016040528092919081815260200182805461155b906122da565b80156115a85780601f1061157d576101008083540402835291602001916115a8565b820191906000526020600020905b81548152906001019060200180831161158b57829003601f168201915b5050505050815250508282815181106115c3576115c36123ec565b602002602001018190525080806115d990612402565b9150506112b8565b600084116116255760405162461bcd60e51b8152602060048201526011602482015270476f616c206d757374206265203e20302160781b6044820152606401610621565b4283116116745760405162461bcd60e51b815260206004820152601f60248201527f446561646c696e65206d75737420626520696e207468652066757475726521006044820152606401610621565b60008054908061168383612402565b9190505550604051806101400160405280336001600160a01b0316815260200187815260200186815260200185815260200184815260200160008152602001600060028111156116d5576116d5611e34565b8152600060208083018290526040808401879052606090930185905281548252600180825292909120835181546001600160a01b0319166001600160a01b0390911617815583820151805191936117329390850192910190611d35565b506040820151805161174e916002840191602090910190611d35565b50606082015160038201556080820151600482015560a0820151600582015560c082015160068201805460ff1916600183600281111561179057611790611e34565b021790555060e082015160068201805461ff001916610100921515830217905582015180516117c9916007840191602090910190611d35565b5061012082015180516117e6916008840191602090910190611d35565b50506000805460405133935090917f633109eec20320eded000fc1e2634211aa7e92ba3f5b15faf6dcdafca05094e491a3505050505050565b3360009081526003602090815260409182902080548351818402810184019094528084526060939283018282801561187657602002820191906000526020600020905b815481526020019060010190808311611862575b5050505050905090565b8060008111801561189357506000548111155b6118af5760405162461bcd60e51b81526004016106219061230f565b816000808281526001602052604090206006015460ff1660028111156118d7576118d7611e34565b146118f45760405162461bcd60e51b815260040161062190612387565b6000838152600160205260409020600481015442118061191c57508060030154816005015410155b6119685760405162461bcd60e51b815260206004820152601d60248201527f43616e277420636c6f7365207468652063616d706169676e20796574210000006044820152606401610621565b60068101805460ff19166001179055600381015460058201546040519111158082529085907fb08312190b5508b59f34a0cda3a5b1010da8272854d7556b9fc6e126c22fe49d90602001610a79565b600360205281600052604060002081815481106119d357600080fd5b90600052602060002001600091509150505481565b806000811180156119fb57506000548111155b611a175760405162461bcd60e51b81526004016106219061230f565b816000808281526001602052604090206006015460ff166002811115611a3f57611a3f611e34565b14611a5c5760405162461bcd60e51b815260040161062190612387565b60008381526001602052604090206004810154421115611a8557611a7f84611880565b50505050565b60003411611acb5760405162461bcd60e51b815260206004820152601360248201527253656e642045544820746f20646f6e6174652160681b6044820152606401610621565b600081600501548260030154611ae1919061241d565b905060008111611b335760405162461bcd60e51b815260206004820152601860248201527f476f616c20697320616c726561647920726561636865642100000000000000006044820152606401610621565b6000813411611b425734611b44565b815b905080341115611b8657336108fc611b5c833461241d565b6040518115909202916000818181858888f19350505050158015611b84573d6000803e3d6000fd5b505b6000868152600260209081526040808320338452909152902054611bf157336000818152600360209081526040808320805460018181018355918552838520018b90558a84526004835290832080549182018155835291200180546001600160a01b03191690911790555b600086815260026020908152604080832033845290915281208054839290611c1a9084906123d4565b9250508190555080836005016000828254611c3591906123d4565b9091555050604051818152339087907f1b606d34afacd55873aba0fd274841a10c63e18455f2dffebad2fc60a36b2c839060200160405180910390a3826003015483600501541415611c8a57611c8a86611880565b505050505050565b60046020528160005260406000208181548110611cae57600080fd5b6000918252602090912001546001600160a01b03169150829050565b60405180610140016040528060006001600160a01b03168152602001606081526020016060815260200160008152602001600081526020016000815260200160006002811115611d1c57611d1c611e34565b8152600060208201526060604082018190529081015290565b828054611d41906122da565b90600052602060002090601f016020900481019282611d635760008555611da9565b82601f10611d7c57805160ff1916838001178555611da9565b82800160010185558215611da9579182015b82811115611da9578251825591602001919060010190611d8e565b50611db5929150611db9565b5090565b5b80821115611db55760008155600101611dba565b600060208284031215611de057600080fd5b5035919050565b6000815180845260005b81811015611e0d57602081850181015186830182015201611df1565b81811115611e1f576000602083870101525b50601f01601f19169290920160200192915050565b634e487b7160e01b600052602160045260246000fd5b60038110611e6857634e487b7160e01b600052602160045260246000fd5b9052565b6001600160a01b038b16815261014060208201819052600090611e918382018d611de7565b90508281036040840152611ea5818c611de7565b90508960608401528860808401528760a0840152611ec660c0840188611e4a565b85151560e0840152828103610100840152611ee18186611de7565b9050828103610120840152611ef68185611de7565b9d9c50505050505050505050505050565b6020808252825182820181905260009190848201906040850190845b81811015611f485783516001600160a01b031683529284019291840191600101611f23565b50909695505050505050565b60008060408385031215611f6757600080fd5b50508035926020909101359150565b80356001600160a01b0381168114611f8d57600080fd5b919050565b60008060408385031215611fa557600080fd5b82359150611fb560208401611f76565b90509250929050565b80516001600160a01b0316825260006101406020830151816020860152611fe782860182611de7565b915050604083015184820360408601526120018282611de7565b915050606083015160608501526080830151608085015260a083015160a085015260c083015161203460c0860182611e4a565b5060e083015161204860e086018215159052565b5061010080840151858303828701526120618382611de7565b92505050610120808401518583038287015261207d8382611de7565b9695505050505050565b60208152600061209a6020830184611fbe565b9392505050565b60208152600061209a6020830184611de7565b6000602080830181845280855180835260408601915060408160051b870101925083870160005b8281101561210957603f198886030184526120f7858351611fbe565b945092850192908501906001016120db565b5092979650505050505050565b634e487b7160e01b600052604160045260246000fd5b600082601f83011261213d57600080fd5b813567ffffffffffffffff8082111561215857612158612116565b604051601f8301601f19908116603f0116810190828211818310171561218057612180612116565b8160405283815286602085880101111561219957600080fd5b836020870160208301376000602085830101528094505050505092915050565b60008060008060008060c087890312156121d257600080fd5b863567ffffffffffffffff808211156121ea57600080fd5b6121f68a838b0161212c565b9750602089013591508082111561220c57600080fd5b6122188a838b0161212c565b96506040890135955060608901359450608089013591508082111561223c57600080fd5b6122488a838b0161212c565b935060a089013591508082111561225e57600080fd5b5061226b89828a0161212c565b9150509295509295509295565b6020808252825182820181905260009190848201906040850190845b81811015611f4857835183529284019291840191600101612294565b600080604083850312156122c357600080fd5b6122cc83611f76565b946020939093013593505050565b600181811c908216806122ee57607f821691505b6020821081141561069057634e487b7160e01b600052602260045260246000fd5b60208082526018908201527f43616d706169676e20646f6573206e6f74206578697374210000000000000000604082015260600190565b60208082526021908201527f596f7520617265206e6f74207468652063616d706169676e2063726561746f726040820152602160f81b606082015260800190565b6020808252601f908201527f43616d706169676e206973206e6f742061637469766520616e796d6f72652100604082015260600190565b634e487b7160e01b600052601160045260246000fd5b600082198211156123e7576123e76123be565b500190565b634e487b7160e01b600052603260045260246000fd5b6000600019821415612416576124166123be565b5060010190565b60008282101561242f5761242f6123be565b50039056fea264697066735822122094e8880f35645b6ba96be2745d9e1ff74e4839267136a97277ac8df0719af4f864736f6c63430008090033",
  "linkReferences": {},
  "deployedLinkReferences": {}
}